:20800000D242F9105700D242F8105600B240805A2001B0122483B012A482C2431D00873C57
:20802000829300020420773C82930202F927929200020202192082930202162492420E027F
:2080400074019292740170010828C2431D00D2B320006D24D2C321006A3CD24202021D0088
:20806000924202020002633C92920002020204208293020204245B3C829302022F208293E4
:2080800000025524829304020820924210027401B240102708029243040292830802929276
:2080A00074017001062C829308020324929304020824C2431D00D2B320000624D2C3210064
:2080C000033CD24200021D008293080230208243040282430002C2431D00293C92420C02C4
:2080E0007401B290A86106020D349292740170010528C2431D0092530602093CD2420202D4
:208100001D00053C92420202000282430602B240100082010C3C3C4010270D43B0126481E3
:2081200082431202C2431D00B2F0EFFF82015C4218001CF3B012FE825F4228003FF01F0013
:208140005E4218003EF0C0FF0EDF0CDE824C0202B290F41A1202682382930202612782437C
:208160000002E03F31800C00814C0000814D0200D2B320000320D2D32100023CD2C3210002
:20818000915100000000916102000200A1410400914102000600A1410800914102000A007F
:2081A0001A3C91830000817302000F3C9183040081730600043C9183080081730A00819394
:2081C0000A00F92381930800F62381930600EE2381930400EB2381930200E32381930000C3
:2081E000E02331500C0030410A1209127A4C213C1C530E930D243F9000010A2C29434F4FD3
:208200008F107B4C0FDB1983FA23023C2F9202287B4C013C0B4A1F833F930B244B4B1D532A
:20822000CD4BFFFF1F833F93FA23033C1D53CD4FFFFF7F4C0F9AFA237F4C0F93E7237F4CFB
:208240008F106B4C0F5BD423304082830A1209123F40A6833F90AA8316243F40AA833F9062
:20826000AE8311243A40AE833A80AA830A110A113940AA833C497F4C0F5F1F4FA6833D494F
:208280008F121A83F7233F4000003F90000008243A400000023C3F4A8F123A900000FB2342
:2082A00030408283B24010026001B240E0006401B24020030A02B24090010C02B240C80041
:2082C0000E02B24064001002B2401F037201B24010008201B2402002800132D230413DF0E3
:2082E0000F003DE00F000D5D005D0C5C0C5C0C5C0C5C0C5C0C5C0C5C0C5C0C5C0C5C0C5C04
:208300000C5C0C5C0C5C0C5C304131400006B01294830C930224B0124C820C43B012008016
:20832000B0129883D2D32200C2432A00F2432F00C2431A00F2431000F2431E003041B2909C
:20834000F41A12020438B240F41A120200139253120200130F4C0C4D3D4003000D5F1E4F7F
:208360000100304066830F4C0E9305241F53FF4DFFFF1E83FB2330413441354136413741B8
:1C838000384139413A41304132D01000FD3F1E433040E8811C4330410343FF3F26
:12839C00000101140001000000008E8354839C830002AF
:02FFE400888310
:02FFE60088830E
:02FFEA0088830A
:02FFEC00888308
:02FFEE00888306
:02FFF000888304
:02FFF200888302
:02FFF400888300
:02FFF8008883FC
:02FFFA003E8344
:02FFFC008883F8
:02FFFE000A8374
:00000001FF
